:100000000C9462000C948A000C948A000C948A0070
:100010000C948A000C948A000C948A000C948A0038
:100020000C948A000C948A000C948A000C948A0028
:100030000C948A000C948A000C948A000C948A0018
:100040000C9466020C948A000C94D6020C94B002B4
:100050000C948A000C948A000C948A000C948A00F8
:100060000C948A000C948A000000000023002600F3
:10007000290000000000240027002A0000000000E2
:10008000250028002B0004040404040404040202D4
:100090000202020203030303030301020408102007
:1000A0004080010204081020010204081020000012
:1000B0000008000201000003040700000000000027
:1000C00000009C0411241FBECFEFD8E0DEBFCDBFDF
:1000D00011E0A0E0B1E0EEE2FAE002C005900D927E
:1000E000A631B107D9F721E0A6E1B1E001C01D9228
:1000F000AD3BB207E1F710E0C2E6D0E004C02197C3
:10010000FE010E940A05C136D107C9F70E94080303
:100110000C9415050C940000833081F028F4813094
:1001200099F08230A1F008958730A9F08830B9F0B5
:100130008430D1F4809180008F7D03C08091800055
:100140008F7780938000089584B58F7702C084B53F
:100150008F7D84BD08958091B0008F7703C080911A
:10016000B0008F7D8093B00008951F93CF93DF93ED
:10017000E8EBF0E09491E4EAF0E0D491E0E9F0E01B
:10018000C491CC23D1F0182F992319F0892F0E9404
:100190008C00EC2FF0E0EE0FFF1FE458FF4FA5910D
:1001A000B4919FB7F894111104C08C91D095D823C5
:1001B00002C0EC91DE2BDC939FBFDF91CF911F91AA
:1001C0000895CF93DF9390E0FC01E656FF4F249112
:1001D000FC01EA57FF4F8491882361F190E0880F7A
:1001E000991FFC01EE58FF4FC591D491FC01E458D2
:1001F000FF4FA591B491611109C09FB7F894888110
:10020000209582238883EC912E230BC0623061F409
:100210009FB7F8948881322F309583238883EC919F
:100220002E2B2C939FBF06C08FB7F894E8812E2BFE
:1002300028838FBFDF91CF9108953FB7F8948091C5
:100240001C0190911D01A0911E01B0911F0126B5C6
:10025000A89B05C02F3F19F00196A11DB11D3FBFFE
:10026000BA2FA92F982F8827820F911DA11DB11D8C
:10027000BC01CD0142E0660F771F881F991F4A9588
:10028000D1F70895CF92DF92EF92FF920F931F93D1
:10029000CF93DF936C017A018B01C0E0D0E0CE15E3
:1002A000DF0581F0D8016D918D01D601ED91FC91B2
:1002B0000190F081E02DC6010995892B11F021965E
:1002C000EECF7E01C701DF91CF911F910F91FF907B
:1002D000EF90DF90CF900895089580E090E008952A
:1002E000FC01538D448D252F30E0842F90E0821B3C
:1002F000930B541710F0CF96089501970895FC01C1
:10030000918D828D981761F0828DDF01A80FB11D4C
:100310005D968C91928D9F5F9F73928F90E0089570
:100320008FEF9FEF0895FC01918D828D981731F02A
:10033000828DE80FF11D858D90E008958FEF9FEF7E
:100340000895FC01918D228D892F90E0805C9F4F54
:10035000821B91098F739927089580E291E00E9492
:10036000A10121E0892B09F420E0822F0895FC01EE
:10037000848DDF01A80FB11DA35ABF4F2C91848D2E
:1003800090E001968F739927848FA689B7892C9363
:10039000A089B1898C91837080648C93938D848DB6
:1003A000981306C00288F389E02D80818F7D8083B9
:1003B0000895EF92FF920F931F93CF93DF93EC0179
:1003C00081E0888F9B8D8C8D981305C0E889F98911
:1003D000808185FD26C0F62E0B8D10E00F5F1F4F2C
:1003E0000F731127E02E8C8DE8120CC00FB607FC9E
:1003F000FACFE889F989808185FFF5CFCE010E9487
:10040000B701F1CF8B8DFE01E80FF11DE35AFF4FCD
:10041000F0829FB7F8940B8FEA89FB898081806214
:100420000AC09FB7F894EE89FF896083E889F9894B
:1004300080818370806480839FBF81E090E0DF9142
:10044000CF911F910F91FF90EF900895CF93DF937D
:10045000EC01888D8823C9F0EA89FB89808185FDBC
:1004600005C0A889B9898C9186FD0FC00FB607FC1D
:10047000F5CF808185FFF2CFA889B9898C9185FF5E
:10048000EDCFCE010E94B701E7CFDF91CF91089564
:1004900080E090E0892B29F00E94AD0181110C943D
:1004A00000000895009769F0FC0101900020E9F731
:1004B0003197AF01481B590BBC0180E291E00C94CD
:1004C000420180E090E008950E9410051F920F9273
:1004D0000FB60F9211242F933F938F939F93AF9357
:1004E000BF938091180190911901A0911A01B091C8
:1004F0001B013091170123E0230F2D3720F40196C3
:10050000A11DB11D05C026E8230F0296A11DB11D36
:10051000209317018093180190931901A0931A0159
:10052000B0931B0180911C0190911D01A0911E01AF
:10053000B0911F010196A11DB11D80931C019093E4
:100540001D01A0931E01B0931F01BF91AF919F9118
:100550008F913F912F910F900FBE0F901F90189584
:100560001F920F920FB60F9211242F933F934F9328
:100570005F936F937F938F939F93AF93BF93EF930B
:10058000FF9380E291E00E94B701FF91EF91BF914C
:10059000AF919F918F917F916F915F914F913F911B
:1005A0002F910F900FBE0F901F9018951F920F92D2
:1005B0000FB60F9211242F938F939F93EF93FF9376
:1005C000E0913001F09131018081E0913601F091AC
:1005D000370182FD12C09081809139018F5F8F7346
:1005E00020913A01821751F0E0913901F0E0E05E8C
:1005F000FE4F958F8093390101C08081FF91EF916B
:100600009F918F912F910F900FBE0F901F90189573
:10061000CF93DF93CDB7DEB7A1970FB6F894DEBFC7
:100620000FBECDBF789484B5826084BD84B58160EF
:1006300084BD85B5826085BD85B5816085BD8091AD
:100640006E00816080936E00109281008091810025
:10065000826080938100809181008160809381001D
:10066000809180008160809380008091B1008460DF
:100670008093B1008091B00081608093B000809140
:100680007A00846080937A0080917A0082608093FF
:100690007A0080917A00816080937A0080917A005C
:1006A000806880937A001092C100E0913001F0914F
:1006B000310182E08083E0912C01F0912D011082C4
:1006C000E0912E01F0912F0180E18083109238019A
:1006D000E0913401F091350186E08083E0913201B0
:1006E000F0913301808180618083E0913201F0914B
:1006F0003301808188608083E0913201F091330181
:10070000808180688083E0913201F09133018081A3
:100710008F7D80831FB7F89480911601811126C0C8
:10072000E0E9F0E08491E4EAF0E09491E82FF0E071
:10073000EE0FFF1FEE58FF4FA591B491EC91E92306
:1007400019F481E00E94B50061E08AE00E94E100B6
:100750008CB580618CBD8CB580648CBD61E08DE012
:100760000E94E10061E08BE00E94E10080911601AF
:100770008F5F809316011FBF8CB58C7F8CBD8DB5AC
:100780008E7F8DBD8CB58F7D8CBD8CB58C608CBD06
:1007900061E08AE00E94E10061E08BE00E94E100FC
:1007A00060E08CE00E94E10061E08DE00E94E100E9
:1007B00081E00E94B50053EC252E312C6AE0862E94
:1007C000912CA12CB12C81E00E94B5008BE891E026
:1007D0000197F1F780E00E94B5000E941D016B01B6
:1007E0007C0142E3442E512C612C712C0E941D018E
:1007F000DC01CB018C199D09AE09BF09883E9340ED
:10080000A105B10598F321E0421A51086108710869
:1008100088EEC80E83E0D81EE11CF11C411451047F
:100820006104710419F700E21EE4C1010197F1F7B8
:10083000EAEBF0E08491E6EAF0E0E490E2E9F0E04F
:10084000F490FF2089F081110E948C00EF2DF0E0E0
:10085000EE0FFF1FE859FF4FA591B4918C91E8224C
:1008600019F00150110909F71EBC00000DB407FE74
:10087000FDCF2EB51EBC00000DB407FEFDCF3EB56A
:100880001EBC00000DB407FEFDCF4EB580E0942FD6
:10089000A32FB22FBC01CD0122E0660F771F881F66
:1008A000991F2A95D1F720E034E040E050E00E9403
:1008B000EB0469017A0157FF20C06DE280E291E00C
:1008C0000E94D90122273327A9012C193D094E097D
:1008D0005F0919A28E010F5D1F4FCA01B901A50161
:1008E00094010E94C904605DF80162938F01211593
:1008F00031054105510589F713C019A28E010F5D1D
:100900001F4FCA01B901A50194010E94C904605D8D
:10091000F80162938F01211531054105510589F7D1
:10092000C8010E94520242E050E062E171E080E2C0
:1009300091E00E94420147CFE0E2F1E0138212828F
:1009400088EE93E0A0E0B0E084839583A683B7832C
:1009500084E091E09183808385EC90E095878487A3
:1009600084EC90E09787868780EC90E0918B808B79
:1009700081EC90E0938B828B82EC90E0958B848B62
:1009800086EC90E0978B868B118E128E138E148ED0
:100990000895A1E21A2EAA1BBB1BFD010DC0AA1FC0
:1009A000BB1FEE1FFF1FA217B307E407F50720F0D8
:1009B000A21BB30BE40BF50B661F771F881F991F53
:1009C0001A9469F760957095809590959B01AC019C
:1009D000BD01CF010895052E97FB1EF400940E94DF
:1009E000020557FD07D00E94C90407FC03D04EF44E
:1009F0000C94020550954095309521953F4F4F4FEF
:100A00005F4F089590958095709561957F4F8F4FBA
:100A10009F4F0895EE0FFF1F0590F491E02D09946C
:0E0A200081E090E0F8940C941505F894FFCF57
:100A2E0000000000D901420170012602A1017F01E0
:060A3E0093010D0A000007
:00000001FF
